:0A0000000C942A000C9400000C94EC
:10000A0000000C9400000C9400000C9400000C9466
:10001A0000000C9400000C9400000C9400000C9456
:10002A0000000C9400000C9400000C9400000C9446
:10003A0000000C9400000C9400000C9400000C9436
:10004A0000000C9400000C940000F894EE27ECBB1E
:10005A00F1E0F5BFE5BF8DE0A2E0BB27ED938A95FD
:10006A00E9F780E098E0A0E6ED930197E9F7EFE57C
:10007A00EDBFE8E0EEBFC0E6D2E00C944400EFEF3B
:10008A00EABBE0E0E7BBB09913C045D0E0E849D04D
:10009A00E2E047D0E0E445D0E4E043D0E0E241D0FA
:1000AA003AD0E8E03ED0E0E13CD0B09BFECF02C0BF
:1000BA00E0E0EBBBB19905C0EFEF33D0B19BFECFC7
:1000CA0002C0E0E0EBBBB2990FC0EFEF2AD0EEE737
:1000DA0028D0EFEF26D0ECE324D0EFEF22D0E8E1EE
:1000EA0020D0B29BFECF02C0E0E0EBBBB3990FC0B9
:1000FA00E0E017D0EFEF15D0EFE013D0E0EF11D02A
:10010A00ECE30FD0E8E10DD0B39BFECF02C0E0E0F4
:10011A00EBBBB9CFFFCFE1E0EBBBACE2B1E00C94B3
:10012A009B00EBBBACE2B1E00C949B00109639F05B
:10013A008AEF90E00197F1F7A8951197C9F708950A
:00000001FF
